{
  "_format": "hh-sol-artifact-1",
  "contractName": "MyNFT",
  "sourceName": "contracts/place_nft.sol",
  "abi": [
    {
      "inputs": [],
      "stateMutability": "nonpayable",
      "type": "constructor"
    },
    {
      "anonymous": false,
      "inputs": [
        {
          "indexed": true,
          "internalType": "address",
          "name": "owner",
          "type": "address"
        },
        {
          "indexed": true,
          "internalType": "address",
          "name": "approved",
          "type": "address"
        },
        {
          "indexed": true,
          "internalType": "uint256",
          "name": "tokenId",
          "type": "uint256"
        }
      ],
      "name": "Approval",
      "type": "event"
    },
    {
      "anonymous": false,
      "inputs": [
        {
          "indexed": true,
          "internalType": "address",
          "name": "owner",
          "type": "address"
        },
        {
          "indexed": true,
          "internalType": "address",
          "name": "operator",
          "type": "address"
        },
        {
          "indexed": false,
          "internalType": "bool",
          "name": "approved",
          "type": "bool"
        }
      ],
      "name": "ApprovalForAll",
      "type": "event"
    },
    {
      "anonymous": false,
      "inputs": [
        {
          "indexed": true,
          "internalType": "address",
          "name": "from",
          "type": "address"
        },
        {
          "indexed": true,
          "internalType": "address",
          "name": "to",
          "type": "address"
        },
        {
          "indexed": true,
          "internalType": "uint256",
          "name": "tokenId",
          "type": "uint256"
        }
      ],
      "name": "Transfer",
      "type": "event"
    },
    {
      "inputs": [
        {
          "internalType": "address",
          "name": "to",
          "type": "address"
        },
        {
          "internalType": "uint256",
          "name": "tokenId",
          "type": "uint256"
        }
      ],
      "name": "approve",
      "outputs": [],
      "stateMutability": "nonpayable",
      "type": "function"
    },
    {
      "inputs": [
        {
          "internalType": "address",
          "name": "owner",
          "type": "address"
        }
      ],
      "name": "balanceOf",
      "outputs": [
        {
          "internalType": "uint256",
          "name": "",
          "type": "uint256"
        }
      ],
      "stateMutability": "view",
      "type": "function"
    },
    {
      "inputs": [
        {
          "internalType": "uint256",
          "name": "tokenId",
          "type": "uint256"
        }
      ],
      "name": "getApproved",
      "outputs": [
        {
          "internalType": "address",
          "name": "",
          "type": "address"
        }
      ],
      "stateMutability": "view",
      "type": "function"
    },
    {
      "inputs": [
        {
          "internalType": "address",
          "name": "owner",
          "type": "address"
        },
        {
          "internalType": "address",
          "name": "operator",
          "type": "address"
        }
      ],
      "name": "isApprovedForAll",
      "outputs": [
        {
          "internalType": "bool",
          "name": "",
          "type": "bool"
        }
      ],
      "stateMutability": "view",
      "type": "function"
    },
    {
      "inputs": [
        {
          "internalType": "string",
          "name": "badgeAction",
          "type": "string"
        }
      ],
      "name": "mintNFT",
      "outputs": [
        {
          "internalType": "uint256",
          "name": "",
          "type": "uint256"
        }
      ],
      "stateMutability": "nonpayable",
      "type": "function"
    },
    {
      "inputs": [],
      "name": "name",
      "outputs": [
        {
          "internalType": "string",
          "name": "",
          "type": "string"
        }
      ],
      "stateMutability": "view",
      "type": "function"
    },
    {
      "inputs": [
        {
          "internalType": "uint256",
          "name": "tokenId",
          "type": "uint256"
        }
      ],
      "name": "ownerOf",
      "outputs": [
        {
          "internalType": "address",
          "name": "",
          "type": "address"
        }
      ],
      "stateMutability": "view",
      "type": "function"
    },
    {
      "inputs": [
        {
          "internalType": "address",
          "name": "from",
          "type": "address"
        },
        {
          "internalType": "address",
          "name": "to",
          "type": "address"
        },
        {
          "internalType": "uint256",
          "name": "tokenId",
          "type": "uint256"
        }
      ],
      "name": "safeTransferFrom",
      "outputs": [],
      "stateMutability": "nonpayable",
      "type": "function"
    },
    {
      "inputs": [
        {
          "internalType": "address",
          "name": "from",
          "type": "address"
        },
        {
          "internalType": "address",
          "name": "to",
          "type": "address"
        },
        {
          "internalType": "uint256",
          "name": "tokenId",
          "type": "uint256"
        },
        {
          "internalType": "bytes",
          "name": "data",
          "type": "bytes"
        }
      ],
      "name": "safeTransferFrom",
      "outputs": [],
      "stateMutability": "nonpayable",
      "type": "function"
    },
    {
      "inputs": [
        {
          "internalType": "address",
          "name": "operator",
          "type": "address"
        },
        {
          "internalType": "bool",
          "name": "approved",
          "type": "bool"
        }
      ],
      "name": "setApprovalForAll",
      "outputs": [],
      "stateMutability": "nonpayable",
      "type": "function"
    },
    {
      "inputs": [
        {
          "internalType": "bytes4",
          "name": "interfaceId",
          "type": "bytes4"
        }
      ],
      "name": "supportsInterface",
      "outputs": [
        {
          "internalType": "bool",
          "name": "",
          "type": "bool"
        }
      ],
      "stateMutability": "view",
      "type": "function"
    },
    {
      "inputs": [],
      "name": "symbol",
      "outputs": [
        {
          "internalType": "string",
          "name": "",
          "type": "string"
        }
      ],
      "stateMutability": "view",
      "type": "function"
    },
    {
      "inputs": [
        {
          "internalType": "uint256",
          "name": "tokenId",
          "type": "uint256"
        }
      ],
      "name": "tokenURI",
      "outputs": [
        {
          "internalType": "string",
          "name": "",
          "type": "string"
        }
      ],
      "stateMutability": "view",
      "type": "function"
    },
    {
      "inputs": [
        {
          "internalType": "address",
          "name": "from",
          "type": "address"
        },
        {
          "internalType": "address",
          "name": "to",
          "type": "address"
        },
        {
          "internalType": "uint256",
          "name": "tokenId",
          "type": "uint256"
        }
      ],
      "name": "transferFrom",
      "outputs": [],
      "stateMutability": "nonpayable",
      "type": "function"
    }
  ],
  "bytecode": "0x60806040523480156200001157600080fd5b506040518060400160405280600581526020017f4d794e46540000000000000000000000000000000000000000000000000000008152506040518060400160405280600381526020017f4e46540000000000000000000000000000000000000000000000000000000000815250816000908051906020019062000096929190620000b8565b508060019080519060200190620000af929190620000b8565b505050620001cd565b828054620000c69062000168565b90600052602060002090601f016020900481019282620000ea576000855562000136565b82601f106200010557805160ff191683800117855562000136565b8280016001018555821562000136579182015b828111156200013557825182559160200191906001019062000118565b5b50905062000145919062000149565b5090565b5b80821115620001645760008160009055506001016200014a565b5090565b600060028204905060018216806200018157607f821691505b602082108114156200019857620001976200019e565b5b50919050565b7f4e487b7100000000000000000000000000000000000000000000000000000000600052602260045260246000fd5b6129cf80620001dd6000396000f3fe608060405234801561001057600080fd5b50600436106100ea5760003560e01c806370a082311161008c578063b88d4fde11610066578063b88d4fde1461025b578063c87b56dd14610277578063e985e9c5146102a7578063fb37e883146102d7576100ea565b806370a08231146101f157806395d89b4114610221578063a22cb4651461023f576100ea565b8063095ea7b3116100c8578063095ea7b31461016d57806323b872dd1461018957806342842e0e146101a55780636352211e146101c1576100ea565b806301ffc9a7146100ef57806306fdde031461011f578063081812fc1461013d575b600080fd5b61010960048036038101906101049190611dcc565b610307565b60405161011691906121c6565b60405180910390f35b6101276103e9565b60405161013491906121e1565b60405180910390f35b61015760048036038101906101529190611e5f565b61047b565b604051610164919061215f565b60405180910390f35b61018760048036038101906101829190611d90565b6104c1565b005b6101a3600480360381019061019e9190611c8a565b6105d9565b005b6101bf60048036038101906101ba9190611c8a565b610639565b005b6101db60048036038101906101d69190611e5f565b610659565b6040516101e8919061215f565b60405180910390f35b61020b60048036038101906102069190611c25565b6106e0565b6040516102189190612383565b60405180910390f35b610229610798565b60405161023691906121e1565b60405180910390f35b61025960048036038101906102549190611d54565b61082a565b005b61027560048036038101906102709190611cd9565b610840565b005b610291600480360381019061028c9190611e5f565b6108a2565b60405161029e91906121e1565b60405180910390f35b6102c160048036038101906102bc9190611c4e565b6109b5565b6040516102ce91906121c6565b60405180910390f35b6102f160048036038101906102ec9190611e1e565b610a49565b6040516102fe9190612383565b60405180910390f35b60007f80ac58cd000000000000000000000000000000000000000000000000000000007bffffffffffffffffffffffffffffffffffffffffffffffffffffffff1916827bffffffffffffffffffffffffffffffffffffffffffffffffffffffff191614806103d257507f5b5e139f000000000000000000000000000000000000000000000000000000007bffffffffffffffffffffffffffffffffffffffffffffffffffffffff1916827bffffffffffffffffffffffffffffffffffffffffffffffffffffffff1916145b806103e257506103e182610aa7565b5b9050919050565b6060600080546103f89061251e565b80601f01602080910402602001604051908101604052809291908181526020018280546104249061251e565b80156104715780601f1061044657610100808354040283529160200191610471565b820191906000526020600020905b81548152906001019060200180831161045457829003601f168201915b5050505050905090565b600061048682610b11565b6004600083815260200190815260200160002060009054906101000a900473ffffffffffffffffffffffffffffffffffffffff169050919050565b60006104cc82610659565b90508073ffffffffffffffffffffffffffffffffffffffff168373ffffffffffffffffffffffffffffffffffffffff16141561053d576040517f08c379a000000000000000000000000000000000000000000000000000000000815260040161053490612343565b60405180910390fd5b8073ffffffffffffffffffffffffffffffffffffffff1661055c610b5c565b73ffffffffffffffffffffffffffffffffffffffff16148061058b575061058a81610585610b5c565b6109b5565b5b6105ca576040517f08c379a00000000000000000000000000000000000000000000000000000000081526004016105c190612363565b60405180910390fd5b6105d48383610b64565b505050565b6105ea6105e4610b5c565b82610c1d565b610629576040517f08c379a000000000000000000000000000000000000000000000000000000000815260040161062090612203565b60405180910390fd5b610634838383610cb2565b505050565b61065483838360405180602001604052806000815250610840565b505050565b60008061066583610fac565b9050600073ffffffffffffffffffffffffffffffffffffffff168173ffffffffffffffffffffffffffffffffffffffff1614156106d7576040517f08c379a00000000000000000000000000000000000000000000000000000000081526004016106ce90612323565b60405180910390fd5b80915050919050565b60008073ffffffffffffffffffffffffffffffffffffffff168273ffffffffffffffffffffffffffffffffffffffff161415610751576040517f08c379a0000000000000000000000000000000000000000000000000000000008152600401610748906122c3565b60405180910390fd5b600360008373ffffffffffffffffffffffffffffffffffffffff1673ffffffffffffffffffffffffffffffffffffffff168152602001908152602001600020549050919050565b6060600180546107a79061251e565b80601f01602080910402602001604051908101604052809291908181526020018280546107d39061251e565b80156108205780601f106107f557610100808354040283529160200191610820565b820191906000526020600020905b81548152906001019060200180831161080357829003601f168201915b5050505050905090565b61083c610835610b5c565b8383610fe9565b5050565b61085161084b610b5c565b83610c1d565b610890576040517f08c379a000000000000000000000000000000000000000000000000000000000815260040161088790612203565b60405180910390fd5b61089c84848484611156565b50505050565b60606108ad82610b11565b60006006600084815260200190815260200160002080546108cd9061251e565b80601f01602080910402602001604051908101604052809291908181526020018280546108f99061251e565b80156109465780601f1061091b57610100808354040283529160200191610946565b820191906000526020600020905b81548152906001019060200180831161092957829003601f168201915b5050505050905060006109576111b2565b905060008151141561096d5781925050506109b0565b6000825111156109a257808260405160200161098a92919061213b565b604051602081830303815290604052925050506109b0565b6109ab846111c9565b925050505b919050565b6000600560008473ffffffffffffffffffffffffffffffffffffffff1673ffffffffffffffffffffffffffffffffffffffff16815260200190815260200160002060008373ffffffffffffffffffffffffffffffffffffffff1673ffffffffffffffffffffffffffffffffffffffff16815260200190815260200160002060009054906101000a900460ff16905092915050565b6000610a556007611231565b6000610a616007611247565b905060008333604051602001610a78929190612113565b6040516020818303038152906040529050610a933383611255565b610a9d8282611473565b8192505050919050565b60007f01ffc9a7000000000000000000000000000000000000000000000000000000007bffffffffffffffffffffffffffffffffffffffffffffffffffffffff1916827bffffffffffffffffffffffffffffffffffffffffffffffffffffffff1916149050919050565b610b1a816114e7565b610b59576040517f08c379a0000000000000000000000000000000000000000000000000000000008152600401610b5090612323565b60405180910390fd5b50565b600033905090565b816004600083815260200190815260200160002060006101000a81548173ffffffffffffffffffffffffffffffffffffffff021916908373ffffffffffffffffffffffffffffffffffffffff160217905550808273ffffffffffffffffffffffffffffffffffffffff16610bd783610659565b73ffffffffffffffffffffffffffffffffffffffff167f8c5be1e5ebec7d5bd14f71427d1e84f3dd0314c0f7b2291e5b200ac8c7c3b92560405160405180910390a45050565b600080610c2983610659565b90508073ffffffffffffffffffffffffffffffffffffffff168473ffffffffffffffffffffffffffffffffffffffff161480610c6b5750610c6a81856109b5565b5b80610ca957508373ffffffffffffffffffffffffffffffffffffffff16610c918461047b565b73ffffffffffffffffffffffffffffffffffffffff16145b91505092915050565b8273ffffffffffffffffffffffffffffffffffffffff16610cd282610659565b73ffffffffffffffffffffffffffffffffffffffff1614610d28576040517f08c379a0000000000000000000000000000000000000000000000000000000008152600401610d1f90612243565b60405180910390fd5b600073ffffffffffffffffffffffffffffffffffffffff168273ffffffffffffffffffffffffffffffffffffffff161415610d98576040517f08c379a0000000000000000000000000000000000000000000000000000000008152600401610d8f90612283565b60405180910390fd5b610da58383836001611528565b8273ffffffffffffffffffffffffffffffffffffffff16610dc582610659565b73ffffffffffffffffffffffffffffffffffffffff1614610e1b576040517f08c379a0000000000000000000000000000000000000000000000000000000008152600401610e1290612243565b60405180910390fd5b6004600082815260200190815260200160002060006101000a81549073ffffffffffffffffffffffffffffffffffffffff02191690556001600360008573ffffffffffffffffffffffffffffffffffffffff1673ffffffffffffffffffffffffffffffffffffffff168152602001908152602001600020600082825403925050819055506001600360008473ffffffffffffffffffffffffffffffffffffffff1673ffffffffffffffffffffffffffffffffffffffff16815260200190815260200160002060008282540192505081905550816002600083815260200190815260200160002060006101000a81548173ffffffffffffffffffffffffffffffffffffffff021916908373ffffffffffffffffffffffffffffffffffffffff160217905550808273ffffffffffffffffffffffffffffffffffffffff168473ffffffffffffffffffffffffffffffffffffffff167fddf252ad1be2c89b69c2b068fc378daa952ba7f163c4a11628f55a4df523b3ef60405160405180910390a4610fa7838383600161152e565b505050565b60006002600083815260200190815260200160002060009054906101000a900473ffffffffffffffffffffffffffffffffffffffff169050919050565b8173ffffffffffffffffffffffffffffffffffffffff168373ffffffffffffffffffffffffffffffffffffffff161415611058576040517f08c379a000000000000000000000000000000000000000000000000000000000815260040161104f906122a3565b60405180910390fd5b80600560008573ffffffffffffffffffffffffffffffffffffffff1673ffffffffffffffffffffffffffffffffffffffff16815260200190815260200160002060008473ffffffffffffffffffffffffffffffffffffffff1673ffffffffffffffffffffffffffffffffffffffff16815260200190815260200160002060006101000a81548160ff0219169083151502179055508173ffffffffffffffffffffffffffffffffffffffff168373ffffffffffffffffffffffffffffffffffffffff167f17307eab39ab6107e8899845ad3d59bd9653f200f220920489ca2b5937696c318360405161114991906121c6565b60405180910390a3505050565b611161848484610cb2565b61116d84848484611534565b6111ac576040517f08c379a00000000000000000000000000000000000000000000000000000000081526004016111a390612223565b60405180910390fd5b50505050565b606060405180602001604052806000815250905090565b60606111d482610b11565b60006111de6111b2565b905060008151116111fe5760405180602001604052806000815250611229565b80611208846116cb565b60405160200161121992919061213b565b6040516020818303038152906040525b915050919050565b6001816000016000828254019250508190555050565b600081600001549050919050565b600073ffffffffffffffffffffffffffffffffffffffff168273ffffffffffffffffffffffffffffffffffffffff1614156112c5576040517f08c379a00000000000000000000000000000000000000000000000000000000081526004016112bc90612303565b60405180910390fd5b6112ce816114e7565b1561130e576040517f08c379a000000000000000000000000000000000000000000000000000000000815260040161130590612263565b60405180910390fd5b61131c600083836001611528565b611325816114e7565b15611365576040517f08c379a000000000000000000000000000000000000000000000000000000000815260040161135c90612263565b60405180910390fd5b6001600360008473ffffffffffffffffffffffffffffffffffffffff1673ffffffffffffffffffffffffffffffffffffffff16815260200190815260200160002060008282540192505081905550816002600083815260200190815260200160002060006101000a81548173ffffffffffffffffffffffffffffffffffffffff021916908373ffffffffffffffffffffffffffffffffffffffff160217905550808273ffffffffffffffffffffffffffffffffffffffff16600073ffffffffffffffffffffffffffffffffffffffff167fddf252ad1be2c89b69c2b068fc378daa952ba7f163c4a11628f55a4df523b3ef60405160405180910390a461146f60008383600161152e565b5050565b61147c826114e7565b6114bb576040517f08c379a00000000000000000000000000000000000000000000000000000000081526004016114b2906122e3565b60405180910390fd5b806006600084815260200190815260200160002090805190602001906114e2929190611a49565b505050565b60008073ffffffffffffffffffffffffffffffffffffffff1661150983610fac565b73ffffffffffffffffffffffffffffffffffffffff1614159050919050565b50505050565b50505050565b60006115558473ffffffffffffffffffffffffffffffffffffffff166117ef565b156116be578373ffffffffffffffffffffffffffffffffffffffff1663150b7a0261157e610b5c565b8786866040518563ffffffff1660e01b81526004016115a0949392919061217a565b602060405180830381600087803b1580156115ba57600080fd5b505af19250505080156115eb57506040513d601f19601f820116820180604052508101906115e89190611df5565b60015b61166e573d806000811461161b576040519150601f19603f3d011682016040523d82523d6000602084013e611620565b606091505b50600081511415611666576040517f08c379a000000000000000000000000000000000000000000000000000000000815260040161165d90612223565b60405180910390fd5b805181602001fd5b63150b7a0260e01b7bffffffffffffffffffffffffffffffffffffffffffffffffffffffff1916817bffffffffffffffffffffffffffffffffffffffffffffffffffffffff1916149150506116c3565b600190505b949350505050565b6060600060016116da84611812565b01905060008167ffffffffffffffff81111561171f577f4e487b7100000000000000000000000000000000000000000000000000000000600052604160045260246000fd5b6040519080825280601f01601f1916602001820160405280156117515781602001600182028036833780820191505090505b509050600082602001820190505b6001156117e4578080600190039150507f3031323334353637383961626364656600000000000000000000000000000000600a86061a8153600a85816117ce577f4e487b7100000000000000000000000000000000000000000000000000000000600052601260045260246000fd5b04945060008514156117df576117e4565b61175f565b819350505050919050565b6000808273ffffffffffffffffffffffffffffffffffffffff163b119050919050565b600080600090507a184f03e93ff9f4daa797ed6e38ed64bf6a1f0100000000000000008310611896577a184f03e93ff9f4daa797ed6e38ed64bf6a1f010000000000000000838161188c577f4e487b7100000000000000000000000000000000000000000000000000000000600052601260045260246000fd5b0492506040810190505b6d04ee2d6d415b85acef810000000083106118f9576d04ee2d6d415b85acef810000000083816118ef577f4e487b7100000000000000000000000000000000000000000000000000000000600052601260045260246000fd5b0492506020810190505b662386f26fc10000831061194e57662386f26fc100008381611944577f4e487b7100000000000000000000000000000000000000000000000000000000600052601260045260246000fd5b0492506010810190505b6305f5e100831061199d576305f5e1008381611993577f4e487b7100000000000000000000000000000000000000000000000000000000600052601260045260246000fd5b0492506008810190505b61271083106119e85761271083816119de577f4e487b7100000000000000000000000000000000000000000000000000000000600052601260045260246000fd5b0492506004810190505b60648310611a315760648381611a27577f4e487b7100000000000000000000000000000000000000000000000000000000600052601260045260246000fd5b0492506002810190505b600a8310611a40576001810190505b80915050919050565b828054611a559061251e565b90600052602060002090601f016020900481019282611a775760008555611abe565b82601f10611a9057805160ff1916838001178555611abe565b82800160010185558215611abe579182015b82811115611abd578251825591602001919060010190611aa2565b5b509050611acb9190611acf565b5090565b5b80821115611ae8576000816000905550600101611ad0565b5090565b6000611aff611afa846123c3565b61239e565b905082815260208101848484011115611b1757600080fd5b611b228482856124dc565b509392505050565b6000611b3d611b38846123f4565b61239e565b905082815260208101848484011115611b5557600080fd5b611b608482856124dc565b509392505050565b600081359050611b778161293d565b92915050565b600081359050611b8c81612954565b92915050565b600081359050611ba18161296b565b92915050565b600081519050611bb68161296b565b92915050565b600082601f830112611bcd57600080fd5b8135611bdd848260208601611aec565b91505092915050565b600082601f830112611bf757600080fd5b8135611c07848260208601611b2a565b91505092915050565b600081359050611c1f81612982565b92915050565b600060208284031215611c3757600080fd5b6000611c4584828501611b68565b91505092915050565b60008060408385031215611c6157600080fd5b6000611c6f85828601611b68565b9250506020611c8085828601611b68565b9150509250929050565b600080600060608486031215611c9f57600080fd5b6000611cad86828701611b68565b9350506020611cbe86828701611b68565b9250506040611ccf86828701611c10565b9150509250925092565b60008060008060808587031215611cef57600080fd5b6000611cfd87828801611b68565b9450506020611d0e87828801611b68565b9350506040611d1f87828801611c10565b925050606085013567ffffffffffffffff811115611d3c57600080fd5b611d4887828801611bbc565b91505092959194509250565b60008060408385031215611d6757600080fd5b6000611d7585828601611b68565b9250506020611d8685828601611b7d565b9150509250929050565b60008060408385031215611da357600080fd5b6000611db185828601611b68565b9250506020611dc285828601611c10565b9150509250929050565b600060208284031215611dde57600080fd5b6000611dec84828501611b92565b91505092915050565b600060208284031215611e0757600080fd5b6000611e1584828501611ba7565b91505092915050565b600060208284031215611e3057600080fd5b600082013567ffffffffffffffff811115611e4a57600080fd5b611e5684828501611be6565b91505092915050565b600060208284031215611e7157600080fd5b6000611e7f84828501611c10565b91505092915050565b611e9181612468565b82525050565b611ea8611ea382612468565b612581565b82525050565b611eb78161247a565b82525050565b6000611ec882612425565b611ed2818561243b565b9350611ee28185602086016124eb565b611eeb81612603565b840191505092915050565b6000611f0182612430565b611f0b818561244c565b9350611f1b8185602086016124eb565b611f2481612603565b840191505092915050565b6000611f3a82612430565b611f44818561245d565b9350611f548185602086016124eb565b80840191505092915050565b6000611f6d602d8361244c565b9150611f7882612621565b604082019050919050565b6000611f9060328361244c565b9150611f9b82612670565b604082019050919050565b6000611fb360258361244c565b9150611fbe826126bf565b604082019050919050565b6000611fd6601c8361244c565b9150611fe18261270e565b602082019050919050565b6000611ff960248361244c565b915061200482612737565b604082019050919050565b600061201c60198361244c565b915061202782612786565b602082019050919050565b600061203f60298361244c565b915061204a826127af565b604082019050919050565b6000612062602e8361244c565b915061206d826127fe565b604082019050919050565b600061208560208361244c565b91506120908261284d565b602082019050919050565b60006120a860188361244c565b91506120b382612876565b602082019050919050565b60006120cb60218361244c565b91506120d68261289f565b604082019050919050565b60006120ee603d8361244c565b91506120f9826128ee565b604082019050919050565b61210d816124d2565b82525050565b600061211f8285611f2f565b915061212b8284611e97565b6014820191508190509392505050565b60006121478285611f2f565b91506121538284611f2f565b91508190509392505050565b60006020820190506121746000830184611e88565b92915050565b600060808201905061218f6000830187611e88565b61219c6020830186611e88565b6121a96040830185612104565b81810360608301526121bb8184611ebd565b905095945050505050565b60006020820190506121db6000830184611eae565b92915050565b600060208201905081810360008301526121fb8184611ef6565b905092915050565b6000602082019050818103600083015261221c81611f60565b9050919050565b6000602082019050818103600083015261223c81611f83565b9050919050565b6000602082019050818103600083015261225c81611fa6565b9050919050565b6000602082019050818103600083015261227c81611fc9565b9050919050565b6000602082019050818103600083015261229c81611fec565b9050919050565b600060208201905081810360008301526122bc8161200f565b9050919050565b600060208201905081810360008301526122dc81612032565b9050919050565b600060208201905081810360008301526122fc81612055565b9050919050565b6000602082019050818103600083015261231c81612078565b9050919050565b6000602082019050818103600083015261233c8161209b565b9050919050565b6000602082019050818103600083015261235c816120be565b9050919050565b6000602082019050818103600083015261237c816120e1565b9050919050565b60006020820190506123986000830184612104565b92915050565b60006123a86123b9565b90506123b48282612550565b919050565b6000604051905090565b600067ffffffffffffffff8211156123de576123dd6125d4565b5b6123e782612603565b9050602081019050919050565b600067ffffffffffffffff82111561240f5761240e6125d4565b5b61241882612603565b9050602081019050919050565b600081519050919050565b600081519050919050565b600082825260208201905092915050565b600082825260208201905092915050565b600081905092915050565b6000612473826124b2565b9050919050565b60008115159050919050565b60007fffffffff0000000000000000000000000000000000000000000000000000000082169050919050565b600073ffffffffffffffffffffffffffffffffffffffff82169050919050565b6000819050919050565b82818337600083830152505050565b60005b838110156125095780820151818401526020810190506124ee565b83811115612518576000848401525b50505050565b6000600282049050600182168061253657607f821691505b6020821081141561254a576125496125a5565b5b50919050565b61255982612603565b810181811067ffffffffffffffff82111715612578576125776125d4565b5b80604052505050565b600061258c82612593565b9050919050565b600061259e82612614565b9050919050565b7f4e487b7100000000000000000000000000000000000000000000000000000000600052602260045260246000fd5b7f4e487b7100000000000000000000000000000000000000000000000000000000600052604160045260246000fd5b6000601f19601f8301169050919050565b60008160601b9050919050565b7f4552433732313a2063616c6c6572206973206e6f7420746f6b656e206f776e6560008201527f72206f7220617070726f76656400000000000000000000000000000000000000602082015250565b7f4552433732313a207472616e7366657220746f206e6f6e20455243373231526560008201527f63656976657220696d706c656d656e7465720000000000000000000000000000602082015250565b7f4552433732313a207472616e736665722066726f6d20696e636f72726563742060008201527f6f776e6572000000000000000000000000000000000000000000000000000000602082015250565b7f4552433732313a20746f6b656e20616c7265616479206d696e74656400000000600082015250565b7f4552433732313a207472616e7366657220746f20746865207a65726f2061646460008201527f7265737300000000000000000000000000000000000000000000000000000000602082015250565b7f4552433732313a20617070726f766520746f2063616c6c657200000000000000600082015250565b7f4552433732313a2061646472657373207a65726f206973206e6f74206120766160008201527f6c6964206f776e65720000000000000000000000000000000000000000000000602082015250565b7f45524337323155524953746f726167653a2055524920736574206f66206e6f6e60008201527f6578697374656e7420746f6b656e000000000000000000000000000000000000602082015250565b7f4552433732313a206d696e7420746f20746865207a65726f2061646472657373600082015250565b7f4552433732313a20696e76616c696420746f6b656e2049440000000000000000600082015250565b7f4552433732313a20617070726f76616c20746f2063757272656e74206f776e6560008201527f7200000000000000000000000000000000000000000000000000000000000000602082015250565b7f4552433732313a20617070726f76652063616c6c6572206973206e6f7420746f60008201527f6b656e206f776e6572206f7220617070726f76656420666f7220616c6c000000602082015250565b61294681612468565b811461295157600080fd5b50565b61295d8161247a565b811461296857600080fd5b50565b61297481612486565b811461297f57600080fd5b50565b61298b816124d2565b811461299657600080fd5b5056fea264697066735822122047a362899d2b93ce9f19470062dfd279d2e23bc025c4cf022ebf3554fdf01ad164736f6c63430008010033",
  "linkReferences": {},
  "deployedLinkReferences": {}
}